:10000000E3C00000FDC00000FBC00000F9C000001C
:10001000F7C00000F5C00000F3C00000F1C0000010
:10002000EFC00000EDC0000044C50000E9C00000C2
:10003000E7C00000E5C00000E3C00000E1C0000030
:10004000DFC00000DDC00000DBC00000D9C0000040
:10005000D7C0000011C10000D3C00000D1C0000013
:10006000CFC00000CDC00000CBC00000C9C0000060
:10007000C7C00000C5C00000C3C00000C1C0000070
:10008000BFC00000BDC00000BBC00000B9C0000080
:10009000B7C00000B5C00000B3C00000B1C0000090
:1000A000AFC00000ADC00000ABC0000012010002F4
:1000B00000000008EB0347200200010200010902D2
:1000C000BF00040100C0320904000000010100006B
:1000D00009240100011E0001010C24020101020299
:1000E00004000000000924030201010101000904C9
:1000F00001000001020000090401010101020000E9
:10010000072401020101000B240201040210014036
:100110001F000905810D40000100000725010100B5
:10012000000009040200000101000009240100018F
:100130001E0001030C24020301020404000000005D
:100140000924030401010301000904030000010262
:100150000000090403010101020000072401040159
:1001600001000B24020104021001401F0009058355
:100170000D400001000007250101000000040309F3
:10018000042A0343006F006E007300740061006E68
:1001900000740069006E00200045006E0067006575
:1001A000006C006D0061006E006E000000180345D9
:1001B0000078007400650072006E0061006C002E13
:1001C000006B00720000000011241FBECFEFDAE0C8
:1001D000DEBFCDBF11E0A0E0B1E0E6EAF2E102C08F
:1001E00005900D92AE31B107D9F711E0AEE1B1E063
:1001F00001C01D92AC33B107E1F71ED20C94510936
:10020000FFCE40911E01842F869586958170866071
:1002100028988EBD0DB407FEFDCF842F8295880FE0
:10022000880F807C8EBD0DB407FEFDCF3EB58FEFED
:100230008EBD0DB407FEFDCF2EB5289A932F9F706B
:1002400080E030E0822B932B34E0880F991F3A95A1
:10025000E1F7E42FF0E0EE0FFF1FE15EFE4F8F5F4E
:100260009F4791838083842F8F5F80931E01883006
:1002700011F410921E0108951F920F920FB60F9263
:1002800011242F933F934F935F936F937F938F939B
:100290009F935091E9008091EC008091330184306C
:1002A00009F076C080910C01882309F471C0809117
:1002B00002018F708093E9008091E80080FF68C0A0
:1002C00080911F01909120018093F1009093F100A3
:1002D0004091F3002091F2006091030170910401BC
:1002E000942F80E030E0822B932B8617970729F418
:1002F0008091E8008E778093E800809121019091B1
:1003000022018093F1009093F1004091F30020913D
:10031000F200942F80E030E0822B932B8617970712
:1003200029F48091E8008E778093E8008091230182
:10033000909124018093F1009093F1004091F3009B
:100340002091F200942F80E030E0822B932B8617CF
:10035000970729F48091E8008E778093E8008091D8
:100360002501909126018093F1009093F100409136
:10037000F3002091F200942F80E030E0822B932B49
:100380008617970729F48091E8008E778093E8001C
:1003900080913301843009F076C08091190188235F
:1003A00009F471C080910F018F708093E9008091F2
:1003B000E80080FF68C08091270190912801809318
:1003C000F1009093F1004091F3002091F2006091D0
:1003D000100170911101942F80E030E0822B932B5B
:1003E0008617970729F48091E8008E778093E800BC
:1003F0008091290190912A018093F1009093F1005E
:100400004091F3002091F200942F80E030E0822BA5
:10041000932B8617970729F48091E8008E778093B5
:10042000E80080912B0190912C018093F100909332
:10043000F1004091F3002091F200942F80E030E031
:10044000822B932B8617970729F48091E8008E77EB
:100450008093E80080912D0190912E018093F1000E
:100460009093F1004091F3002091F200942F80E0EE
:1004700030E0822B932B8617970729F48091E800B0
:100480008E778093E8005F705093E9009F918F9181
:100490007F916F915F914F913F912F910F900FBE80
:1004A0000F901F9018951F9312E010936E002091EB
:1004B0001A0130911B0140911C0150911D0160E80F
:1004C00074E88EE190E0CBD6215027BD14BD15BD58
:1004D0001F91089515BC76980895EF92FF920F939F
:1004E0001F93D801F70180910201481731F42130A0
:1004F00021F4613081F06138E1F180910F014817FA
:1005000009F050C0213009F04DC0613021F0613850
:1005100009F048C02EC0AB2B09F446C0228130E060
:1005200040E050E0A90133272227818190E0A0E03C
:10053000B0E0BA2FA92F982F8827282B392B4A2BC8
:100540005B2B808190E0A0E0B0E0282B392B4A2B78
:100550005B2B20931A0130931B0140931C01509395
:100560001D0160E874E88EE190E079D6215027BD46
:100570001BC01097C9F083E090E08D939C9320916D
:100580001A0130911B0140911C0150911D01CA01BB
:10059000AA27BB278283BB27A52F942F832F818374
:1005A000208302C080E001C081E01F910F91FF9085
:1005B000EF90089580E0089580E091E0D3D48DE03D
:1005C00091E0D0C40F931F9380E091E0B5D4082F41
:1005D0008DE091E0B1D410E090E00823192300FFF2
:1005E00002C0769A03C08EB180748EB91F910F91AC
:1005F000089584B7877F84BF88E10FB6F89480930D
:100600006000109260000FBE80E090E020E80FB61E
:10061000F89420936100809361000FBE6E9A7698E3
:100620002BD2219A229A209A2398289A8DB58E7FD0
:100630008DBD80E58CBD0895DCDF789467D4E1DD65
:10064000FDCFDA01923049F0933061F09130F9F446
:10065000ECEAF0E022E130E01EC0EEEBF0E02FEB40
:1006600030E019C0813049F0813018F0823079F4DF
:1006700008C0EDE7F1E0849107C0E1E8F1E0849182
:1006800003C0EDEAF1E08491282F30E004C0E0E0FF
:10069000F0E020E030E0ED93FC93C90108959C0167
:1006A00040913A0150913B014617570718F4F90160
:1006B00090E045C06115710511F0AB01F8CF809154
:1006C000E8008E778093E80040E050E0F0CF809122
:1006D0003301882309F445C0853009F444C0809172
:1006E000E80083FF02C081E008958091E80082FD68
:1006F00032C08091E80080FF22C08091F300909189
:10070000F200782F60E0292F30E0262B372B07C02E
:1007100081918093F100415050402F5F3F4F411530
:10072000510519F02830310598F390E02830310553
:1007300009F491E08091E8008E778093E8004115FC
:10074000510529F6992319F606C0809133018823B3
:1007500041F0853041F08091E80082FFF6CF80E0E3
:10076000089582E0089583E008959C016115710564
:1007700029F48091E8008B778093E800F90127C085
:1007800080913301882399F1853099F18091E800B7
:1007900083FF02C081E008958091E80082FFF0CFDE
:1007A00006C08091F10081936150704059F0209112
:1007B000F3008091F200322F20E090E0822B932B07
:1007C000892B79F78091E8008B778093E800611599
:1007D0007105B1F606C080913301882341F0853060
:1007E00041F08091E80080FFF6CF80E0089582E03C
:1007F000089583E008959C0140913A0150913B0196
:100800004617570718F4F90190E046C061157105C5
:1008100011F0AB01F8CF8091E8008E778093E8006B
:1008200040E050E0F0CF80913301882309F447C0C5
:10083000853009F446C08091E80083FF02C081E062
:1008400008958091E80082FD34C08091E80080FF27
:1008500023C08091F3009091F200782F60E0292F5F
:1008600030E0262B372B08C084918093F10031961D
:10087000415050402F5F3F4F4115510519F028302E
:10088000310590F390E02830310509F491E0809132
:10089000E8008E778093E8004115510521F69923F1
:1008A00009F0C1CF06C080913301882341F0853023
:1008B00041F08091E80082FFF6CF80E0089582E069
:1008C000089583E00895382F282F2EC0822F8F702F
:1008D0008093E900231721F4762F942F50E006C06F
:1008E0007091EC009091ED005091F00091FF1BC0D1
:1008F0008091EB008E7F8093EB008091ED008D7FE7
:100900008093ED008091EB0081608093EB00709309
:10091000EC009093ED005093F0008091EE0087FD85
:1009200002C080E008952F5F273080F23F7030933F
:10093000E90081E008950F931F93CF93DF93062F73
:10094000EC0110E02AC09881992329F16B81E9819B
:10095000FA812C81892F8F70873018F5223010F49E
:1009600052E001C056E040E028E030E003C04F5FB5
:10097000220F331F2E173F07D0F36295660F660FC5
:10098000607C991F9927991F692B4295407F452BC1
:100990009ADF882331F01F5F25961017A0F281E0BF
:1009A00001C080E0DF91CF911F910F910895809158
:1009B000340188239CF404C0809133018823B9F06A
:1009C0008091E80082FFF8CF8091E8008B778093D8
:1009D000E800089580913301882349F08091E80070
:1009E00080FFF8CF8091E8008E778093E80008952B
:1009F000EF92FF920F931F934FD056D008ED10E067
:100A0000F80180818F7780838081806880838081F6
:100A10008F7D808319BC1092330110922F011092A8
:100A200031011092300180EEE82EF12CF701808127
:100A30008B7F8083F80180818160808380E060E02B
:100A400042E041DFE1EEF0E080818E7F8083E2EEE4
:100A5000F0E0808181608083808188608083F701FD
:100A600080818E7F8083F8018081806180831F91E7
:100A70000F91FF90EF900895E8EDF0E080818F7E78
:100A80008083E7EDF0E080818160808384E082BF35
:100A900081E080933201ACCFE8EDF0E080818E7F81
:100AA00080831092E20008951092DA001092E10023
:100AB00008951F920F920FB60F9211242F933F9318
:100AC0004F935F936F937F938F939F93AF93BF9356
:100AD000EF93FF938091E10082FF0AC08091E200D2
:100AE00082FF06C08091E1008B7F8093E1000DD2F0
:100AF0008091DA0080FF1DC08091D80080FF19C06E
:100B00008091DA008E7F8093DA008091D90080FF97
:100B10000CC080E189BD82E189BD09B400FEFDCF32
:100B200081E080933301BFDC04C019BC1092330113
:100B3000D1DC8091E10080FF18C08091E20080FF4D
:100B400014C08091E2008E7F8093E2008091E200E9
:100B500080618093E2008091D80080628093D80009
:100B600019BC85E080933301D0D18091E10084FFEE
:100B70002DC08091E20084FF29C080E189BD82E11F
:100B800089BD09B400FEFDCF8091D8008F7D809390
:100B9000D8008091E1008F7E8093E1008091E20097
:100BA0008F7E8093E2008091E20081608093E2007A
:100BB00080912F01882331F48091E30087FD02C0EA
:100BC00081E001C084E0809333019FD18091E100F6
:100BD00083FF22C08091E20083FF1EC08091E1006C
:100BE000877F8093E10082E08093330110922F0190
:100BF0008091E1008E7F8093E1008091E2008E7F02
:100C00008093E2008091E20080618093E20080E0C6
:100C100060E042E058DE79D1FF91EF91BF91AF9152
:100C20009F918F917F916F915F914F913F912F9104
:100C30000F900FBE0F901F9018951F93DF93CF93C7
:100C4000CDB7DEB7AC970FB6F894DEBF0FBECDBF01
:100C5000E4E3F1E08091F100819321E0EC33F207CD
:100C6000C9F7AADC8091E80083FF37C18091340185
:100C700030913501353009F487C0363040F43130D9
:100C8000C9F1313070F0333009F027C133C038304A
:100C900009F4F5C0393009F404C1363009F01DC13A
:100CA00096C0803821F0823809F017C108C09091B1
:100CB000300180913101882399F0926011C08091B8
:100CC00038018F708093E9008091EB0090E025E07F
:100CD000969587952A95E1F7982F91701092E900E3
:100CE0008091E800877F8093E8009093F100109254
:100CF000F100D0C0882319F0823009F0EEC090E0F6
:100D00008F719070009721F0029709F0E6C00CC037
:100D100080913601813009F0E0C01092310133300A
:100D200069F5809331012AC080913601882331F51D
:100D3000209138012F7009F4D0C02093E9008091F0
:100D4000EB0080FF1BC0333021F48091EB00806208
:100D500013C08091EB0080618093EB0081E090E014
:100D600002C0880F991F2A95E2F78093EA0010923B
:100D7000EA008091EB0088608093EB001092E9001C
:100D80008091E800877F89C0882309F0A6C0109170
:100D900036011F778091E3008078812B8093E300F8
:100DA0008091E800877F8093E80001DE8091E80071
:100DB00080FFFCCF8091E30080688093E3001123E3
:100DC00011F482E001C083E08093330186C0805833
:100DD000823008F082C0809136019091370123E083
:100DE0008C3D920709F033C083E08C838AE28B83C9
:100DF0007FB7F894DE0115966EE040E050E011E216
:100E0000E62FF0E010935700849140FF03C08295D5
:100E10008F706F5F8F70282F30E08A3018F0C90113
:100E2000C79602C0C901C0968D939D934F5F5F4FD7
:100E30004431510529F77FBF8091E800877F809377
:100E4000E800CE0103966AE270E029DC12C06091EE
:100E50003801AE014F5F5F4FF4DBBC01009709F42E
:100E60003CC08091E800877F8093E80089819A8167
:100E7000C2DC8091E8008B778093E8002EC0803838
:100E800061F58091E800877F8093E80080912F01D1
:100E90008093F1008091E8008E778093E80087DDF1
:100EA0001CC08823D1F4909136019230B0F4809127
:100EB000E800877F8093E80090932F0178DD809190
:100EC0002F01882331F48091E30087FD02C081E087
:100ED00001C084E08093330175DB8091E80083FFDB
:100EE0000AC08091E800877F8093E8008091EB0042
:100EF00080628093EB00AC960FB6F894DEBF0FBE15
:100F0000CDBFCF91DF911F91089508951F938091D8
:100F10003301882371F01091E9008091EC00109268
:100F2000E9008091E80083FF01C087DE1F70109305
:100F3000E9001F9108950895CF93DF93EC011C867B
:100F400081E08D838A87CE01029661E0F4DC8823FC
:100F500031F0CE01079661E0EEDC811181E0DF9196
:100F6000CF9108952F923F924F925F926F927F920E
:100F70008F929F92AF92BF92CF92DF92EF92FF92A9
:100F80000F931F93DF93CF9300D0CDB7DEB74C0103
:100F90002DB63EB68091E80083FF47C140913401F1
:100FA000242F30E02F7130702130310541F49091C1
:100FB0003801F4018081981779F081810AC02230CC
:100FC000310551F490913801F4018281981721F094
:100FD0008781981709F029C170903501FBE07F16D1
:100FE000A9F0F71530F0872D8150843008F01DC12D
:100FF0002BC061E8761608F418C174E8771508F07C
:10100000B1C08FEF781609F010C113C0413009F05C
:101010000CC18091E800877F8093E800C8DC90E0F5
:1010200080913601811191E0F4019487C40183DF3E
:10103000FCC04152423008F0F8C08091E800877F40
:101040008093E800B4DCF1C02230310509F03EC0E5
:101050005090380140903701C401672D452D242D53
:1010600000E010E0EE24FF2438DA882309F4DDC024
:10107000BDB6AEB680913A0190913B019A838983C7
:101080002DB73EB7281B390B0FB6F8943EBF0FBEE5
:101090002DBFCDB6DEB60894C11CD11C8091E800EE
:1010A000877F8093E80069817A81C6015EDB809149
:1010B000E8008E778093E800C401672D452D242D2C
:1010C0008E010F5F1F4F760108DA43C021303105D2
:1010D00009F0ABC060903901409036015090370163
:1010E000C401672D462D920100E010E0EE24FF249C
:1010F00061DA882309F499C0BDB6AEB680913A0191
:1011000090913B019A8389836DB77EB7681B790BF9
:101110000FB6F8947EBF0FBE6DBFCDB6DEB6089495
:10112000C11CD11C8091E800877F8093E800698111
:101130007A81C6011ADB8091E8008E778093E800FF
:10114000C401672D462D92018E010F5F1F4F76015E
:1011500031DA2B2D3A2DC9010FB6F8949EBF0FBE80
:101160008DBF63C02230310511F5CDB66EB640910A
:1011700038012091370180913A0190913B019A8387
:101180008983EDB7FEB7E81BF90B0FB6F894FEBFE5
:101190000FBEEDBFADB6BEB60894A11CB11CC40114
:1011A000672D8E010F5F1F4F750197D926C0213023
:1011B0003105D9F5CDB66EB6409139012091360191
:1011C0003091370180913A0190913B019A83898354
:1011D0006DB77EB7681B790B0FB6F8947EBF0FBE54
:1011E0006DBFADB6BEB60894A11CB11CC401672D7D
:1011F0008E010F5F1F4F7501DDD9882371F080913B
:10120000E800877F8093E80069817A81C50147DA29
:101210008091E8008B778093E8008C2D962D9C01BF
:101220000FB6F8943EBF0FBE2DBF0FB6F8943EBE6A
:101230000FBE2DBE0F900F90CF91DF911F910F9198
:10124000FF90EF90DF90CF90BF90AF909F908F90E6
:101250007F906F905F904F903F902F900895A1E204
:101260001A2EAA1BBB1BFD010DC0AA1FBB1FEE1F20
:10127000FF1FA217B307E407F50720F0A21BB30B6B
:10128000E40BF50B661F771F881F991F1A9469F7E7
:1012900060957095809590959B01AC01BD01CF0143
:0612A0000895F894FFCF51
:1012A60000018140000002000000000000020383EC
:0E12B60040000002000000000000401F000089
:00000001FF
